:100000000C94C8060C94E5060C94E5060C94E506E1
:100010000C94E5060C94E5060C94E5060C94E506B4
:100020000C94E5060C94E5060C94082A0C94DC2A42
:100030000C9469240C94E5060C94E5060C94E506F2
:100040000C94E5060C94E5060C94E5060C94E50684
:100050000C94E5060C94F0240C94E5060C94E5064B
:100060000C94E5060C94E5060C94E5060C94E50664
:100070000C94E5060C94E5060C94E5060C94E50654
:100080000C94E5060C94E5060C94E5060C94E50644
:100090000C94E5060C94E5060C94E5060C94E50634
:1000A0000C94E5060C94E5060C94E50614001A0081
:1000B000080015001700000000001C0018000C00CC
:1000C0001200130004281624072109220A00000048
:1000D00000000B000D320E310F3433381D001B00B1
:1000E000060019000500350031001100100036002F
:1000F0003700380039470000000000412C422B43F4
:1001000028442A454C460000000028470000000013
:100110000000000000000000000020780000000047
:1001200000000000E300E200E000E1000000000049
:1001300000000000BC00AA00A900BB0000000000F5
:100140000000000000000000000000000000BE00F1
:10015000BD000000000000000000000000000000E2
:10016000AD00AE00A800000000000000000000008C
:100170000000000000000000000079007D007C000D
:100180007B007A00E300E200E000E10000000000F4
:10019000000029005000510052004F0000000000F4
:1001A0000000000000000000000049004A004E006E
:1001B0004B004D00000000000000000000000000A7
:1001C00028002A004C000000000000000000000091
:1001D0000000000000000000000079007D007C00AD
:1001E0007B007A00E300E200E000E1000000000094
:1001F000000000005000510052004F0000000000BD
:10020000000000000000000000000000CF00CE0051
:10021000CD00D00000000000000000000000000041
:10022000D100D200D3000000000000002F02240201
:10023000250226023002000000000000000000003D
:100240000000000033022102220223022E020000DD
:1002500000000000E500E400E600E70035021E02B1
:100260001F02200231020000000000000000000018
:1002700000000000000000000000260227022D02FE
:100280000000000000000000000000002F0024001B
:1002900025002600300000000000000000000000E3
:1002A0000000000033002100220023002E00000087
:1002B00000000000E500E400E700E70035001E0054
:1002C0001F002000310000000000000000000000BE
:1002D00000000000000000000000370027002D0093
:1002E0000000000000000000000000004500400089
:1002F0004100420046000000000000000000000035
:100300000000000044003D003E003F0047000000A8
:1003100000000000E500E400E600E70043003A00CA
:100320003B003C004800000000000000000000000E
:100330000000000000000000000076002C002B00F0
:100340000000000000000000000000007A007B00B8
:100350007C007D0079000000000079007D007C00B9
:100360007B007A00E300E200E000E1000000000012
:1003700000000000E500E400E600E7007A007B00F2
:100380007C007D0079000000000079007D007C0089
:100390007B007A0000000000000000000000000068
:1003A000000000000000000000000000444542552D
:1003B000473A2064697361626C65642E0A004445A3
:1003C0004255473A20656E61626C65642E0A000AE8
:1003D0000025303258006C65645F7461736B3A209D
:1003E000004F6E6573686F743A2061637469766557
:1003F0003A2025640A000A002530313662003A208E
:100400000025303258000A722F63203031323334E5
:1004100035363738394142434445460A00290A00F7
:100420002575002F002575005D280025640020003B
:10043000256400200025640020002564007C002540
:10044000303258006D6F7573656B6579205B62742F
:100450006E7C782079207620685D287265702F6127
:10046000636C293A205B00556E69636F646520698F
:100470006E707574206D6F64652073657420746F81
:100480003A2025750A00556E69636F646520696EB0
:10049000707574206D6F646520696E697420746F67
:1004A0003A2025750A0000000000000000002A2BF9
:1004B0002800000000000000000000000000000014
:1004C0000029000000002C1E34202122243426277D
:1004D000252E362D3738271E1F202122232425269E
:1004E0003333362E37381F0405060708090A0B0C6C
:1004F0000D0E0F101112131415161718191A1B1CB4
:100500001D2F3130232D350405060708090A0B0C71
:100510000D0E0F101112131415161718191A1B1C93
:100520001D2F3130354C000000000000000000009D
:1005300000000000000000000000000000000000BB
:10054000000000000000000000007E0F00D4FFFF4C
:10055000FFC700000078313A0964656C6179282A88
:1005600031306D73293A2025750A323A09696E7463
:10057000657276616C286D73293A2025750A333AC5
:10058000096D61785F73706565643A2025750A347A
:100590003A0974696D655F746F5F6D61783A202503
:1005A000750A353A09776865656C5F6D61785F73C8
:1005B000706565643A2025750A363A09776865657D
:1005C0006C5F74696D655F746F5F6D61783A20254B
:1005D000750A00703A097072696E742076616C75E4
:1005E00065730A643A097365742064656661756CA5
:1005F00074730A75703A092B310A646E3A092D3109
:100600000A6C743A092B31300A72743A092D313070
:100610000A4553432F713A09717569740A0A737058
:10062000656564203D2064656C7461202A206D61DD
:10063000785F7370656564202A2028726570656133
:1006400074202F2074696D655F746F5F6D61782908
:100650000A77686572652064656C74613A20637519
:1006600072736F723D25642C20776865656C3D253B
:10067000640A53656520687474703A2F2F656E2E76
:1006800077696B6970656469612E6F72672F77692E
:100690006B692F4D6F7573655F6B6579730A004DDC
:1006A0003E20004D25753A25733E20003F0A003D4F
:1006B0002025750A003F0A0064656661756C7473D5
:1006C0000A0025750A003F0A000A092D2056616CB0
:1006D000756573202D0A00710A000A092D204D6FDF
:1006E0007573656B6579202D0A003F00433E20003D
:1006F0004C25640A000A092D205374617475732017
:100700002D0A686F73745F6B6579626F6172645FE5
:100710006C65647328293A20253032580A6B657954
:10072000626F6172645F70726F746F636F6C3A2096
:10073000253032580A6B6579626F6172645F696453
:100740006C653A20253032580A6B65796D61705FAF
:10075000636F6E6669672E6E6B726F3A202530325A
:10076000580A74696D65725F726561643332282955
:100770003A202530386C580A002573000A092D20CC
:10078000436F6E736F6C65202D0A4553432F713A8A
:1007900009717569740A6D3A096D6F7573656B65DA
:1007A000790A000A092D204D61676963202D0A44EA
:1007B0003A094465627567204D657373616765200A
:1007C000546F67676C650A583A094D6174726978AD
:1007D000204465627567204D6F646520546F6767BC
:1007E0006C65202D2053686F77206B65797072657A
:1007F0007373657320696E206D6174726978206708
:100800007269640A4B3A094B6579626F61726420C0
:10081000446562756720546F67676C65202D2053AF
:10082000686F77206B65797072657373207265707D
:100830006F72740A4D3A094465627567204D6F7591
:10084000736520546F67676C650A563A095665727E
:1008500073696F6E0A533A095374617475730A436E
:100860003A09416374697661746520436F6E736FF2
:100870006C65204D6F64650A46312D4631303A096A
:1008800053776974636820746F204C6179657220B6
:10089000302D392028463130203D204C30290A3077
:1008A0002D393A0953776974636820746F204C615D
:1008B00079657220302D390A47524156453A09531D
:1008C000776974636820746F204C61796572203099
:1008D0002028616C7465726E617465290A423A0958
:1008E0004A756D7020746F20426F6F746C6F616415
:1008F00065720A4553433A094A756D7020746F203A
:10090000426F6F746C6F616465722028616C7465EE
:10091000726E617465290A453A095072696E7420D5
:10092000454550524F4D2053657474696E67730A84
:100930004241434B53504143453A09436C65617210
:1009400020454550524F4D0A4E3A094E4B524F20CA
:10095000546F67676C650A006B65796D61705F63E2
:100960006F6E6669672E7261773A20253032580AB9
:100970002E737761705F636F6E74726F6C5F63610B
:1009800070736C6F636B3A2025750A2E6361707308
:100990006C6F636B5F746F5F636F6E74726F6C3AD2
:1009A0002025750A2E737761705F6C63746C5F6CC1
:1009B0006775693A2025750A2E737761705F7263D7
:1009C000746C5F726775693A2025750A2E737761BA
:1009D000705F6C616C745F6C6775693A2025750A8D
:1009E0002E737761705F72616C745F726775693ABC
:1009F0002025750A2E6E6F5F6775693A2025750A86
:100A00002E737761705F67726176655F6573633AB5
:100A10002025750A2E737761705F6261636B736C5A
:100A20006173685F6261636B73706163653A20250F
:100A3000750A2E6E6B726F3A2025750A2E737761D8
:100A4000705F6573636170655F636170736C6F6322
:100A50006B3A2025750A0064656275675F636F6E87
:100A60006669672E7261773A20253032580A2E6502
:100A70006E61626C653A2025750A2E6D617472692B
:100A8000783A2025750A2E6B6579626F6172643A37
:100A90002025750A2E6D6F7573653A2025750A003D
:100AA0006565636F6E6669673A0A64656661756C51
:100AB000745F6C617965723A2025750A003F004EBB
:100AC0004B524F3A206F66660A004E4B524F3A2007
:100AD0006F6E0A000A6D6F7573653A206F66660A5D
:100AE000000A6D6F7573653A206F6E0A000A6B65B8
:100AF00079626F6172643A206F66660A000A6B65FC
:100B000079626F6172643A206F6E0A000A6D6174D7
:100B10007269783A206F66660A000A6D61747269BC
:100B2000783A206F6E0A000A64656275673A206F32
:100B300066660A000A64656275673A206F6E0A008D
:100B40000A0A4A756D70696E6720746F20626F6F54
:100B5000746C6F616465722E2E2E2000433E20005F
:100B6000436C656172696E6720454550524F4D0A6E
:100B7000000A002530325820006B6579626F61727F
:100B8000645F7265706F72743A200064656C5F6BAD
:100B900065795F6269743A2063616E2774206465C9
:100BA0006C3A20253032580A006164645F6B6579C5
:100BB0005F6269743A2063616E2774206164643AED
:100BC00020253032580A005B735D005B575D005B87
:100BD000535D005B525D005B445D005B435D000E56
:100BE0000341007400720065007500730000001678
:100BF000034B006500790062006F006100720064C1
:100C00000069006F0000000403090409025B00038F
:100C10000100A0FA090400000103010100092111EB
:100C200001000122400007058103080001090401B9
:100C300000010300000009211101000122B6000794
:100C400005820320000109040200020300000009DC
:100C50002111010001222200070583032000010762
:100C60000503032000011201000200000008091220
:100C700003230100010200010631FF0974A10109EB
:100C800075150026FF00952075088102097615006C
:100C900026FF00952075089102C005010902A101F7
:100CA00085020901A100050919012908150025017E
:100CB0009508750181020501093009311581257FEB
:100CC00095027508810609381581257F95017508FB
:100CD0008106050C0A38021581257F95017508816A
:100CE00006C0C005010980A101850319012AB700CA
:100CF000150126B700950175108100C0050C09018A
:100D0000A101850419012AA002150126A00295015E
:100D100075108100C005010906A1018506050719A6
:100D2000E029E715002501950875018102050719DD
:100D30000029EF1500250195F075018102050819BC
:100D4000012905950575019102950175039101C071
:100D500005010906A101050719E029E7150025018C
:100D60009508750181029501750881010507190033
:100D700029FF150026FF0095067508810005081952
:100D8000012905950575019102950175039101C031
:100D900011241FBECFEFDAE0DEBFCDBF12E0A0E02E
:100DA000B1E0E6EAFBE502C005900D92A63CB10772
:100DB000D9F723E0A6ECB2E001C01D92A93EB2072C
:100DC000E1F70E9484180C944B2D0C940000FF93C3
:100DD000EF93E091C602F091C702309709F00995B0
:100DE000EF91FF910895FC018591803011F0EFDFC4
:100DF000FBCF0895FF27E0E230E247FF0CC04195AA
:100E000097FF09C0EDE26095709580959095611D02
:100E1000711D811D911D27FF02C0219530E350E215
:100E2000AA27660F771F881F991FAA1FA41710F003
:100E3000A41B63955A95A9F7AA3008F0A95FA05D95
:100E4000AF93F395611571058105910541F7ED3279
:100E500011F4EF93F395F21718F43F93F395FBCF4A
:100E60008F91B5DFFA95E1F70895E991F9918591B0
:100E7000803021F0853219F0AADFF9CF089520E003
:100E8000E89455915532C1F3503311F4689455915B
:100E90005A3348F4505390F3220F022E220F220FA0
:100EA000200D250FF4CF0EF4219589919991533699
:100EB00019F3533729F1533559F1BC018827992784
:100EC000E8945C3621F4899199916894559154364F
:100ED00039F446EF7EF077FF0DC08FEF9FEF0AC029
:100EE00055374AE039F0583540E121F0523642E0BA
:100EF00009F00895FF93EF937DDFEF91FF91B7CF56
:100F0000FF93EF93FC0181918030B9F360DFFBCF59
:100F1000FF93EF9368DFF1CFDF93CF93CDB7DEB7C9
:100F20002596A3DFCF91DF9108958830B8F464301F
:100F3000A8F44C3098F450E09CE0699F400D511D9E
:100F40001124FA0190E3899FE00DF11D1124EE0FA9
:100F5000FF1FE455FF4F85919491089581E090E043
:100F600008950E94950708959C013A9521153F41E7
:100F700050F5FC01EE27F170BC0166277270AC01E0
:100F8000442754709C012227387094FF0EC080E1E2
:100F9000EF2B09F480E0672B09F08062452B09F004
:100FA0008064232B89F08068089581E0EF2B09F499
:100FB00080E0672B09F08260452B09F08460232BC9
:100FC00019F08860089580E00895CF93DF93EB01D6
:100FD0000E94B407FE010995DF91CF910895CF9348
:100FE000DF93EC01805E9109089720F061E57DE0D8
:100FF000209711F46DEF7AE0CE010E94E5078C2F67
:101000000E94EB09DF91CF910895CF93DF93EC011C
:101010000E94820ACE01805E9109089720F068E55F
:101020007DE0209711F464E07BE0CE010E94E507AB
:10103000DF91CF9108950F931F93CF93DF938C018E
:10104000EB010E94EF07209741F4C8010E940508B8
:10105000DF91CF911F910F9108958FE99FE0019744
:10106000F1F700C000002197EECF70E060E0893317
:10107000910511F460E570E00E941B08089581E07D
:10108000089581E008950E944108089508950E94FE
:1010900046080895A5E0B0E0E0E5F8E00C94B72C30
:1010A00049835A833091CD0289819A81311119C0C7
:1010B000662399F0222389F00E94CA0E182F682F08
:1010C00089819A810E94A60E69817A81812F0E946E
:1010D000B7152596E3E00C94D32C0E94B80E182F78
:1010E000F3CF0E94CA0E69817A81F1CFFC01262FCD
:1010F000408151816281738184810E944A080895F0
:1011000081E00895CF93DF93EC0160E00E947608C0
:10111000BE010E944708DF91CF91089508950E9473
:10112000750D0E948E082FEF84E39CE021508040D3
:101130009040E1F700C0000008950E948F080E94CF
:10114000142508950E948F080E94252508950F9365
:101150001F93CF93DF938C0161E00E947608EC012E
:10116000B8010E944308811106C080E0DF91CF9151
:101170001F910F910895B801CE010E94A51B8823ED
:10118000A1F3B801CE010E942C22882371F3B8018B
:10119000CE010E94541D882341F3B801CE010E9464
:1011A0009E21882311F3F8018281882369F0C330DE
:1011B000FCE7DF0781F160F4C130ECE7DE0769F19D
:1011C000C0F4C115DC4791F0C8010E943F08CECFA2
:1011D000CB35ECE7DE0739F1CC35FCE7DF0701F171
:1011E000CA35DC4789F70E941113EECF0E949D0893
:1011F000BCCF90917803892F8E7F90FF8160809380
:10120000780380FF05C08EEB93E00E94F306ADCF1C
:101210008CEA93E0FACF0E9419130E94A208A5CF8E
:101220000E940713D1CF0E941513CECF0E944524F0
:101230000E94620908950E9466090E944A24089546
:10124000829590E09C01220F331F220F331F2C7CCC
:1012500095958795959587958373282B30E0C901DF
:10126000880F991F8A7A359527952575822B0895C1
:10127000CF93DF93D92F0E942009C82F8D2F0E9472
:1012800020099C2FDF91CF910895089581E0089562
:101290000895CF93DF93D82F0E944609C82F882343
:1012A00019F08D2F0E9448098C2FDF91CF9108955E
:1012B0000895CF93C82F0E9445098C2F0E94490999
:1012C000CF91089580E00E94590908950E947A22E2
:1012D0000E9459090895CF930E947A22C82F8091C5
:1012E000C8028C1789F1C093C8020E94D52460936C
:1012F000C9027093CA028093CB029093CC02809172
:10130000780382FF1EC080FF1CC086ED93E00E9420
:10131000F3068091780380FF14C01F92CF9381ED74
:1013200093E09F938F930E948C07809178030F9096
:101330000F900F900F9080FF04C08FEC93E00E94FD
:10134000F3068C2F0E945909CF910895ABE0B0E0CD
:10135000ECEAF9E00C94B82C4F83588769877A87B8
:101360008B8761110E943F121E821D8285E0FE0163
:101370003796DE01119601900D928A95E1F78C81E6
:101380009D81892B61F449815A816B817C818D819A
:101390009E810E9464112B96E2E00C94D42C8981EA
:1013A0009A8189238F3F79F3CE0101960E948008AC
:1013B0008111E9CFF0CFFC01808191810E94FC0E68
:1013C0000895662329F00E9408190E94DB190895E8
:1013D0000E946219FACFCF93C82F8823C9F08238B0
:1013E000C9F40E947A2281FD13C089E30E94F4119E
:1013F0000E9460122FEF87EE93E0215080409040D2
:10140000E1F700C0000089E30E94FC110E94601215
:10141000CF9108958338A1F40E947A2280FDF8CFFD
:1014200083E50E94F4110E9460122FEF81EE94E098
:10143000215080409040E1F700C0000083E5E4CFF8
:101440008438A1F40E947A2282FDE2CF87E40E94D0
:10145000F4110E9460122FEF81EE94E02150804041
:101460009040E1F700C0000087E4CECF8CEF8C0FF6
:10147000813AB8F48C2F0E944A218111C9CF6C2F78
:1014800080910001909101010E944923882329F055
:101490008C2F0E94FC110E9460128C2F0E94F4116C
:1014A000B5CF80E28C0F883048F4C77081E001C06E
:1014B000880FCA95EAF70E941F12A8CFEBE5EC0F40
:1014C000E33040F4F0E0E75BFE4F808190E00E9463
:1014D000EB229ECFE8E5EC0FEB3150F4F0E0EE0F9D
:1014E000FF1FED5EFE4F808191810E94102390CFFF
:1014F00083E38C0F833108F08BCF61E08C2F0E9447
:10150000E10986CF882309F456C0823879F40E9415
:101510007A2281FF50C089E30E94F4110E94601278
:1015200089E30E94FC110E9460120895833859F4E7
:101530000E947A2280FF3FC083E50E94F4110E943E
:10154000601283E5EECF843859F40E947A2282FF3C
:1015500032C087E40E94F4110E94601287E4E1CF58
:101560009CEF980F913AE8F290E2980F983050F47F
:10157000877091E001C0990F8A95EAF7892F0E9440
:101580002512D1CF9BE5980F933028F490E080E0AE
:101590000E94EB22089598E5980F9B3128F490E083
:1015A00080E00E941023089593E3980F933118F47C
:1015B00060E00E94E10908951F93CF93DF93182FF5
:1015C000EB010E94EB09209739F4812F0E94820AD7
:1015D000DF91CF911F9108958FE99FE00197F1F777
:1015E00000C000002197EFCF70E060E0893311F474
:1015F00060E570E00E94DC0A0895882321F00E94D3
:101600001F120E9460120895882321F00E94251263
:101610000E9460120895B0E0A0E0E1E1FBE00C94CC
:10162000B12C6C01D62FC72FFC01128105810295C8
:101630000F700E941512E82E8823E9F0E12E112385
:10164000D1F08C2F807F803451F080E28D0F883074
:10165000F8F0011104C08C2F807E8032C9F0809197
:10166000C10382FF15C082E00E94C3120E941512BE
:1016700091E0E82EE926BC2EB2949FE0B922FBE06F
:10168000FB15B8F1EB2DF0E0E35BF24D0C94A22CCE
:10169000E12CF1CF0C2F0F70C07F11F00295007F6D
:1016A000112399F0002359F080E28D0F883010F05B
:1016B000D11107C0802F0E941F120E9460128D2F2F
:1016C00063C0802F0E943212F8CF8D2F0E94820AB1
:1016D000002379F080E28D0F883010F0D11104C022
:1016E000802F0E94251203C0802F0E9438120E9472
:1016F00060122B2D2850330B2430310520F40E942A
:101700007A220E945909EE2089F00E94111280FD70
:101710000DC0F60112820E940B120E94040EC60137
:101720000E94270D0E940B120E94140ECDB7DEB747
:10173000E9E00C94CD2C2C2F2F70F22EC07FC032FC
:1017400019F0F29480EFF822DD2381F0D13009F412
:1017500049C0112309F451C0002309F448C0F6011F
:10176000858180FFACCF8F70858341C08091C1039C
:1017700082FD15C0112359F0FF2029F08F2D0E9402
:101780001F120E94601280E00E94EB09B2CF80E03D
:101790000E94820AFF2009F4ACCF8F2DA2CF112323
:1017A00081F0011106C00E9442128F290E94FD0A99
:1017B000A0CF0130C1F70E9442128F290E94491226
:1017C00098CF011106C00E9456128F2D0E94040B63
:1017D00090CF013009F48DCF8F2D0E94040B0E9411
:1017E000561287CF112329F0063008F082CF8F2DB3
:1017F000DDCF053008F07DCFE8CF002331F3D933BA
:1018000049F4FFEF27EE33E0F15020403040E1F79C
:1018100000C000008D2F0E94820A6BCF8C2F86950E
:101820008695837069F0813009F063CF8D2F9C2FEE
:101830009370111102C080E090E00E94102359CFF4
:101840008D2F9C2F9370111102C080E090E00E94B8
:10185000EB224FCF612F8D2F0E94E1094ACF8C2FB1
:101860008370A1F5111145CF4D2F429546954770D4
:10187000440F440F2D2F2F7030E0042E02C0220F92
:10188000331F0A94E2F790E080E0D4FF09C08FE0B4
:1018900090E002C0880F991F4A95E2F780959095D5
:1018A000C695C695C370822B932BC23049F058F46D
:1018B000C13019F00E94D40D1CCF0E94CB0D19CF5E
:1018C0000E94DD0D16CF0E94C80D13CF86951123FF
:1018D00011F08C2F8170882309F40BCF4D2F429586
:1018E00046954770440F440F2D2F2F7030E0042E83
:1018F00002C0220F331F0A94E2F790E080E0D4FF89
:1019000009C08FE090E002C0880F991F4A95E2F766
:1019100080959095C695C695C370822B932BC23047
:1019200049F058F4C13019F00E943F0EE2CE0E94F7
:10193000360EDFCE0E94480EDCCE0E94EC0DD9CED2
:10194000CF70112329F08C2F0E94040E8D2F2ECFE3
:101950008D2F0E94040B8C2F0E94140ECACED23FF2
:1019600041F160F4D03FB9F0D13F81F0112309F487
:1019700046C00111A4CE8C2F8F711FC0D33F01F13F
:10198000D43FA1F78091C10382FD24C08C2F8F71B9
:10199000112311F312C0112341F0053008F0A9CE34
:1019A0008C2F8F710E94260EA4CE063008F0A1CE97
:1019B000F7CF8C2F8F711111CFCF0E94040E99CECB
:1019C000112329F08C2F8F710E94F80D92CE0E9466
:1019D000F30D8FCE112349F0CF718C2F0E94040E8E
:1019E00063E08C2F0E94A51284CE81E00E94C31276
:1019F000023008F47ECE82E00E94C3127ACE002329
:101A000059F0D93309F006CF8FEF97EEE3E081501C
:101A10009040E040E1F7FCCE8C2F8F719DCF0F936B
:101A20001F93CF93DF93EC01688179818A810E94B3
:101A3000070F8C010E94510E0E94C70DB801CE0104
:101A40000E940B0BDF91CF911F910F910895CF93BF
:101A5000DF93EC018B819C81892B29F0888199810E
:101A600089238F3F51F4DF91CF910895CE010E94D9
:101A70000F0DCE010E948208F6CFCE010E94A7086A
:101A80008111F4CF0E941512882369F38A8188237B
:101A900051F38091C10382FFE6CF82E00E94C3121E
:101AA000E2CF882321F00E9432120E946012089532
:101AB000882321F00E9438120E946012089590E05D
:101AC00080E00E94EB2290E080E00E9410230E94C0
:101AD0003F120E9460120E94791A0E94DB19089539
:101AE0000E9404120E945F0D08950E942F120E940E
:101AF000700D089592959F70963091F058F4925F12
:101B00009F70923058F4803F19F030F4883E30F4E2
:101B100081E008959A5FF4CF843FD1F380E0089587
:101B2000883EB0F3813FD1F7F3CFFC0183819481EC
:101B3000892B29F08081918189238F3F11F480E0E6
:101B40000895808191810E94FC0E0E947A0D089573
:101B5000A5E0B0E0EEEAFDE00C94B82C2596E2E0BA
:101B60000C94D42CA6E0B0E0E8EBFDE00C94B82C8B
:101B70002696E2E00C94D42C08950E94BC0D0895A2
:101B80000E94BD0D9093E9028093E80208950895A4
:101B90000E94C00D08952091E8023091E902822B45
:101BA000932B0E94C00D08952091E8023091E90224
:101BB000822393230E94C00D08952091E802309162
:101BC000E902822793270E94C00D08950E94BC0D50
:101BD00008950E94E60D08950E94E90D9093E70292
:101BE0008093E602089590E080E00E94EC0D089555
:101BF00021E030E0A90102C0440F551F8A95E2F7A9
:101C0000CA010E94EC0D089521E030E002C0220FCD
:101C1000331F8A95E2F78091E6029091E702822BCA
:101C2000932B0E94EC0D089521E030E002C0220FBA
:101C3000331F8A95E2F7209530958091E6029091C6
:101C4000E702822393230E94EC0D089521E030E007
:101C500002C0220F331F8A95E2F78091E60290912D
:101C6000E702822793270E94EC0D08952091E60257
:101C70003091E702822B932B0E94EC0D0895209166
:101C8000E6023091E702822393230E94EC0D08952F
:101C90002091E6023091E702822793270E94EC0D03
:101CA00008950895262F277091E001C0990F2A9575
:101CB000EAF723E0769567952A95E1F7660F771F97
:101CC000660F771FFA01E60FF71F50E040E0682F1C
:101CD00070E08191DF0111979B01042E02C03695BF
:101CE00027950A94E2F72170219528272923282790
:101CF0002C934F5F5F4F4430510559F70895A82F3B
:101D0000A77023E0969587952A95E1F7880F991F8C
:101D1000880F991FFB01E80FF91F50E040E080E0B9
:101D2000219130E00A2E02C0369527950A94E2F7F9
:101D300021703327042E01C0220F0A94EAF7822B68
:101D40004F5F5F4F4430510559F70895262F943067
:101D500070F48C3060F4682F70E08CE0989F600D18
:101D6000711D11244EEC52E0822F0E94520E0895F4
:101D7000292F943068F48C3058F490E06EEC72E0C7
:101D80003CE0239F800D911D11240E947F0E089539
:101D900080E00895B0E0A0E0E0EDFEE00C94B12C0E
:101DA0007C010091E6021091E7028091E802909197
:101DB000E902082B192BCFE0D0E0CC24C394D12C1E
:101DC000BC2EC6010C2E02C0880F991F0A94E2F7A0
:101DD00080239123892B49F4219790F7B12C8B2DE7
:101DE000CDB7DEB7E9E00C94CD2CB7018C2F0E9463
:101DF000C315019789F3F3CFCF93DF93EC010E94D2
:101E0000CA0EBE010E94C315DF91CF9108951F93A2
:101E1000CF93DF93EB019091CD02992339F0CB0161
:101E20000E94FC0EDF91CF911F910895882369F0E5
:101E3000CB010E94CA0E182F682FCE010E94A60E59
:101E4000BE01812F0E94C315EDCFCB010E94B80EB9
:101E5000182FF6CF1F93CF93DF93C091EA0216E0BD
:101E60008091EB028C1304C0DF91CF911F910895F4
:101E7000D0E01C9FF0011D9FF00D1124E451FD4F97
:101E80004081518162817381848195810E94B20D6C
:101E90002196C770E5CF40911C0350911D036091BE
:101EA0001E0370911F0380912003909121030E94D3
:101EB000B20D08952091EA029091EB0256E02913A9
:101EC00002C080E0089530E0529FF001539FF00D72
:101ED0001124E451FD4F7181761306C0708178138F
:101EE00003C07281741304C02F5F3F4F2770E7CF88
:101EF00081E008951F93CF93DF9380912103807F2A
:101F000009F04BC080911E03882309F446C08091DC
:101F1000EA02C091EB0240911C0350911D036091B5
:101F20001F0370912003D42FD52316E0C817A9F101
:101F300090E061157105A9F1DF3F99F1189FF0015B
:101F4000199FF00D1124DF01A451BD4F11962C9162
:101F50001197251326C02C91241323C012962C917F
:101F6000129721111EC013962D913C91261B370B01
:101F7000283C3105B0F4809121038F7080618093FB
:101F80002103EF50FD4F80818F70806180838CE151
:101F900093E00E94270D0E942A0FDF91CF911F919D
:101FA000089501968770C2CFA1E1B0E0EAEDFFE0AD
:101FB0000C94AE2C8C0185E0F801DE011D96019099
:101FC0000D928A95E1F7F801F2808CE1A82E83E06A
:101FD000B82E40911F03509120034115510509F47B
:101FE0005AC190911C0320911D03892F82238F3F9A
:101FF00009F451C1C080D18083809480E0901E0399
:10200000B401641B750BEE2009F4F6C08091210326
:10201000382F307F683C710508F0AFC031117AC0AD
:10202000EF2C2D1116C09C1114C0F11012C08F702E
:102030008061809321030E944B0FC5010E94270DF0
:1020400080912103F80185838E2D6196ECE00C943C
:10205000CA2C81149104C9F18C2D8D218F3FA9F1D7
:1020600081E08F2580FF05C04F2D6D2D8C2D0E94A6
:102070005A0F8114910459F18C2D8D218F3F39F124
:1020800081E08F25F82FF170BF2E80FF39C04F2DD2
:102090006D2D8C2D0E945A0FA82E811131C0CD8636
:1020A000DE868D859E850E94FC0E292F22952F703D
:1020B000243078F49F702230A8F09923B9F0F80109
:1020C0009581907F99F4EA2CBFCF80E0CBCF80E060
:1020D000D9CF2A5F2F70223068F0C8010E94270DE7
:1020E000AB2CF1CF992311F0882369F3805E8830FF
:1020F00050F3F3CF803F38F3815F833070F7E3CF45
:10210000FF2009F4A1CF80912103816080932103F6
:10211000E12C9ACF2D1105C09C1103C0FF2009F4BA
:1021200086C0C8010E94950D882319F1FF2009F18E
:1021300080912103803270F020911C0330911D03A7
:1021400038872F8319869B868A868C87CE010796CF
:102150000E94270D86E0F801ACE1B3E001900D92FA
:102160008A95E1F70E947A0F0E944B0FEE24E394C8
:102170006BCFC8010E94270DF9CF311114C0782D03
:10218000998A888AA6016F2D89890E94A80D8CE101
:1021900093E00E94270D86E0F50111928A95E9F7F8
:1021A0000E944B0FB5CF2D110EC09C110CC0F11029
:1021B0000AC08583C8010E94270D86E0F5011192AF
:1021C0008A95E9F741CFC8010E94950D882389F2CD
:1021D000FF2079F280912103803208F4BBCF209157
:1021E0001C0330911D033A8329831B829D828C82BC
:1021F0008E83CE010196ACCF683C710508F03DC0DE
:10220000EF2CFF2009F4B5CF2D1129C09C1127C058
:102210008091210380FD1AC0982F907FB9F08583AB
:10222000903F31F0982F907F905F8F70892B85833E
:10223000C8010E94270D86E0F801ACE1B3E00190EF
:102240000D928A95E1F70E944B0FFECE86E0F801D1
:10225000ACE1B3E001900D928A95E1F7F5CEC801AB
:102260000E94950D811176CF80912103816080932A
:102270002103C8010E94270DE7CE782D998A888A0C
:10228000A6016F2D89890E94A80D86E0F5011192A3
:102290008A95E9F7D8CFFF2009F46BCFC8010E94D7
:1022A000950DE82E882309F464CF86E0F801ACE1AF
:1022B000B3E001900D928A95E1F78CE193E00E94E2
:1022C000DB090E947A0FBFCFACE0B0E0EAE6F1E1B3
:1022D0000C94B72C4F83588769877A878B879C87A4
:1022E000CE0107960E94D40F8823B1F08A859B8582
:1022F000892B39F04F815885842F85238F3F09F032
:102300006CC016E08091EA029091EB02891343C001
:102310002C96E3E00C94D32C86E0FE013796DE0188
:10232000119601900D928A95E1F78A859B85892BFC
:1023300041F38F81988589238F3F19F32091EB0218
:1023400030E0C9010196877099274091EA02481749
:10235000190671F40E94750D1092EB021092EA02B8
:1023600086E0ECE1F3E0DF011D928A95E9F7C9CF41
:1023700096E0929FD001939FB00D1124A451BD4FC0
:10238000FE01319601900D929A95E1F78093EB0250
:102390000E942A0FB6CF819FC001112484519D4F06
:1023A0000E94D40F882309F4B3CFE091EA021E9F64
:1023B000F0011124E451FD4F40815181628173810C
:1023C000848195810E94B20D8091EA0290E001968D
:1023D000877099278093EA0295CF69857A858B85E6
:1023E0009C850E94B20D8DCF682F80910001909145
:1023F00001010E94EB230895682F809100019091C4
:1024000001010E94F923089580910001909101013A
:102410000E940724089580914203859585958595AE
:1024200008958091420387700895909142039770B8
:1024300081E009F480E0089580916503089590910A
:102440006503892B809365030895809590916503BA
:1024500098239093650308958093650308951092DF
:102460006503089590916403892B80936403089514
:10247000809590916403982390936403089510923B
:102480006403089580914303089508950E944512BE
:1024900008959091C10392FF08C09091430398174B
:1024A00021F0809343030E944612089580914303D4
:1024B000882329F01092430380E00E944612089579
:1024C000CF93DF93E0910001F091010180916503CA
:1024D0008083E0910001F09101018081909164037B
:1024E000892B808390914303992381F0E09100012F
:1024F000F09101018081892B80838091000190916E
:1025000001010E94352381110E945612C0910001E1
:10251000D091010140E250E062E273E0CE010E94FE
:10252000F32C892B59F080E2FE01A2E2B3E0019086
:102530000D928A95E1F7CE010E948A22DF91CF9118
:10254000089508950E94A11208959091C10392FFE9
:1025500011C098E0899F90011124622B609342037F
:102560000E94040E809142038595859585950E9471
:10257000A21208950E94040E08951092420380E072
:102580000E94A2120895909142038095892380931E
:102590004203282F277091F4282F082E000C330BAC
:1025A0009217130659F09091C10392FF07C08595C9
:1025B000859585950E94140E0E94BD120895CF93B3
:1025C000C82F8091C10382FB992790F99C17E9F0ED
:1025D000C0FB82F98093C1038091C0039091C10335
:1025E0000E943A1382E00E94C3128091780380FF18
:1025F0000CC01F92CF9381EE93E09F938F930E9424
:102600008C070F900F900F900F90CF9108958091AD
:10261000C10382FB882780F991E089270E94DF129D
:10262000089581E00E94DF12089580E00E94DF1289
:1026300008956FEF7FEF90E080E00E94352D0895C0
:1026400090E080E00E94112D21E0873E9E4F09F02E
:1026500020E0822F089582E090E00E94092D0895E5
:1026600083E090E00E94092D089584E090E00E94AC
:10267000112D0895BC0184E090E00E94352D08954D
:10268000AB01BC018FE090E00E94292D0895AB01C1
:10269000BC0183E190E00E94292D089560E070E084
:1026A000CB010E944713089560E070E0CB010E94C7
:1026B00040130E944E13089567EE7EEF90E080E095
:1026C0000E94352D60E082E090E00E94172D60E0CE
:1026D00083E090E00E94172D1092E9021092E80228
:1026E00060E074E184E090E00E94352D60E086E0D7
:1026F00090E00E94172D6FEF87E090E00E94172D69
:1027000040E050E0BA0188E090E00E94292D60E0AE
:102710008DE090E00E94172D40E050E0BA0188E182
:1027200090E00E94292D60E087E190E00E94172D43
:1027300040E050E0BA018CE190E00E94292D70E069
:1027400060E080E290E00E94352D40E050E0BA0168
:1027500088E190E00E94292D0E94541308950E9460
:102760005C130895682F8EE090E00E94172D089565
:10277000A5E0B0E0EEEBF3E10C94B62C0E94C92486
:102780008C01809166039091670380179107A1F0F7
:102790008FEF89838A831B820E94C9248160782FEE
:1027A0009D838C8349815A816B818D810E94A6090A
:1027B00010936703009366032596E4E00C94D22CF3
:1027C0000E94D524609374037093750380937603FD
:1027D00090937703609370037093710380937203F7
:1027E000909373030895089508950E94F413089533
:1027F00008950E94F813089581E008958AED96E205
:102800000E9470220E94F3130E94F51308950E9403
:10281000FC1308950E9407140895089508950E94D6
:102820000D140E940E1408950E94CA160E945809A1
:102830000E94F51B08950E94C0240E94E5170E9483
:1028400014140E94F9130895A5E0B0E0EAE2F4E15F
:102850000C94AD2C0E94FC1381110AC00E94B81385
:102860000E949B1A0E946B092596EDE00C94C92CDE
:102870000E94FB1728E6822E23E0922E640110E0CE
:10288000F601E190F1906F01812F0E94F0161F5F19
:10289000143009F449C0E816F90691F380917803E1
:1028A00081FD0E94F9160E940A14782E10E0812FF3
:1028B0000E94F0167C01F401A190B1904F018A159D
:1028C0009B0561F100E0CC24C394D12CAE24BF243D
:1028D000C5018C219D21892BC1F07720B1F009839E
:1028E0001A8321E0C7018C219D21892B09F420E066
:1028F0002B830E94C9248160782F9D838C8349811A
:102900005A816B818D810E94A6090F5FCC0CDD1C62
:102910000C30F1F6F4013297F182E0821F5F14303F
:1029200031F60E94E0139CCFE816F90609F0B6CF05
:1029300095CF1F93CF93DF930E94C815EC01C1156B
:1029400080E5D807F0F5C11580E4D80708F09CC0F1
:10295000C03ED10520F5CD3CD10508F082C0C83A73
:10296000D10578F4C53AD10508F073C0C130D1055E
:1029700019F1209709F1C430D105F0F4D0E0C0E09E
:102980001BC0C33CD105D0F7C85AD0E0CC0FDD1F27
:10299000C45BDE4F0990D881C02DD4640DC0C11531
:1029A00080E2D80708F0D1C0C11581E0D80708F04F
:1029B0005AC0C83ED10510F7CE01DF91CF911F91CB
:1029C0000895C03682E5D80718F5C03482E5D807E7
:1029D00008F06BC0C03282E5D80708F05FC0C115AF
:1029E00082E5D80708F497C02C2F2695269580E21B
:1029F000289F900111248C2F8370C1E0D0E002C089
:102A0000CC0FDD1F8A95E2F7C22BD32BDD68D4CF24
:102A1000C03A82E5D80760F4C03882E5D80708F4E8
:102A200059C0CF71D0E0DC2FCC27C46FD06AC4CF9F
:102A3000C03C82E5D80708F462C0C03E82E5D807F2
:102A400008F09CCFDC2FCC27CC27DF71C06FD06A79
:102A5000B3CFC55AD0E0CE57DE4FC881D0E0D064A6
:102A6000ABCFD065A9CF8D2F0E946A16182FCE014B
:102A700099270E94C815C12FD0E0DC2FCC27CC2786
:102A8000DF71C82BD92B98CFCE0199270E94C8158A
:102A9000CC27DF70C82BD92BD06A8ECFCF71D0E076
:102AA000DC2FCC27C16FD06A87CF2C2F2695269597
:102AB000277080E2289F900111248C2F8370C1E041
:102AC000D0E002C0CC0FDD1F8A95E2F7C22BD32BDA
:102AD000DC6872CF2C2F26952695277080E2289FE0
:102AE000900111248C2F8370C1E0D0E002C0CC0F84
:102AF000DD1F8A95E2F7C22BD32BDA685DCF8C2FCE
:102B00008F710E946A16C82FD0E0DC2FCC27CC270B
:102B1000DF71D06251CF8C2F8F710E946A1655E001
:102B2000D695C7955A95E1F7CF70D0E0DC2FCC272A
:102B3000282F30E084FF05C044E0220F331F4A9560
:102B4000E1F7C22BD32BD06937CF8D2F8F710E9425
:102B50006A16182FCE0199270E94C815C12FD0E000
:102B6000DC2FCC27CC27DF71C82BD92BD2CF462F17
:102B7000743030F46C3020F4672F0E94B107089550
:102B800090E080E008950E94B7150E94991408957E
:102B900082389105B9F1B0F48133910509F47DC013
:102BA00048F48932910509F46DC08A32910509F41F
:102BB0007BC008958533910509F45FC08933910581
:102BC00009F10895833E9105D9F138F4803E9105CD
:102BD00029F1823E910579F10895863E9105D9F15A
:102BE000873E910509F43EC0843E910541F5209150
:102BF000C10321FF24C08091C00384FD19C087EE6A
:102C000090E008952091C003237009F05AC02091EC
:102C1000C10323FF14C089E290E008952091C0030E
:102C200020FD38C03091C10330FF09C024FF43C0EC
:102C300090E080E008952091C00322FDF7CF089531
:102C40002091C00322FD3AC03091C10330FD39C04C
:102C500024FFF5CFEDCF2091C00323FFF0CF24FD5B
:102C6000E7CFCDCF2091C00323FD2EC03091C1030B
:102C700031FFEECF84EE90E008952091C00325FF50
:102C8000DECFC9CF2091C00325FD21C02091C10313
:102C900023FFD5CF89E390E0D2CF2091C00326FF58
:102CA000CECF8AE290E008952091C00326FFC7CFDF
:102CB00081E390E0089583EE90E0089582EE90E045
:102CC000089580EE90E0089586EE90E0089585E303
:102CD00090E008959091C00392FF06C0282F2871BC
:102CE0002830F9F4877F846093FF06C0282F28716D
:102CF0002831F1F4877E84612091C10320FF06C052
:102D0000382F38713830D9F4877F816021FF06C0B1
:102D1000282F28712831D1F4877E816194FD877E28
:102D20000895282F24712430F9F68B7F8860DCCF3A
:102D3000282F2471243101F78B7E8861DDCF382F55
:102D40003171313019F78E7F8860E0CF282F2171E3
:102D5000213121F78E7E8861E1CF0E9419130895F9
:102D60000E94FB172FEF86E791E0215080409040B2
:102D7000E1F700C000000E94FB1780E00E94F016FF
:102D800080FF04C00E94AD160E94142508950E9481
:102D9000B01608950E942013811102C00E94AF1343
:102DA0000E942B13809378030E9435139093C103E4
:102DB0008093C0030E94C7160E94301390E00E94C7
:102DC000C80D8091E6029091E7020E94E90D0895F6
:102DD00008950E94E816089508950E94EC1608953B
:102DE000E82FF0E0EE0FFF1FE653FC4F808191814A
:102DF0000895B0E0A0E0EFEFF6E10C94B22C86E08D
:102E000094E00E94F3068AECE82E83E0F82ED0E0EE
:102E1000C0E091E0C92E94E0D92E08EF13E0DF93D3
:102E2000CF93DF92CF920E948C078EEF93E00E94A7
:102E3000F306F701819191917F010E9438099F93D8
:102E40008F931F930F930E948C0786EF93E00E944D
:102E5000F30621968DB79EB708960FB6F8949EBFDD
:102E60000FBE8DBFC430D105D1F6CDB7DEB7E8E0D7
:102E70000C94CE2C80EA8A95F1F7089500C008954D
:102E80000E943A170895F894E82FE295EF70F0E069
:102E900031A1282F2F7081E090E001C0880F2A9582
:102EA000EAF7982F9095932391A392A1892B82A35F
:102EB00078940895CF93DF9386EF0E94431785EFB0
:102EC0000E94431784EF0E94431781EF0E9443172B
:102ED000C5E8D1E089918F3F11F00E94431781E04E
:102EE000C139D807B9F7DF91CF910895AF92BF925A
:102EF000DF92EF92FF920F931F93CF93DF938C019A
:102F0000D62EC62FD0E0CE018F569E4F7C01FC01FD
:102F100020812F3F09F44CC0F894E22FE295EF7026
:102F2000F0E031A12F7081E090E001C0880F2A9578
:102F3000EAF7932F982B91A392A18095892382A3DE
:102F400078940E943E17E5E8F1E041E050E0B12CB2
:102F5000A12C21912F3FB1F1A22FA295AF70B0E02B
:102F600090968C9190E02F7002C0959587952A9548
:102F7000E2F780FD27C0CA01A82AB92A440F551FCD
:102F800081E0E139F80729F7F70180818F3F11F0DF
:102F90000E94431761E0A114B10409F460E08D2D93
:102FA0000E944017CC0FDD1FC00FD11FB982A8822D
:102FB000DF91CF911F910F91FF90EF90DF90BF9025
:102FC000AF90089590E080E0D7CF0E945A1788E034
:102FD000EAECF3E0DF01982F1D929A95E9F7E2EC15
:102FE000F3E0DF011D928A95E9F784E00E9436182C
:102FF0000E94E9160895A8E0B0E0E1E0F8E10C9441
:10300000B52C8E010F5F1F4F88E0F80111928A9551
:10301000E9F7F12C6F2DC8010E947617F394F4E0C4
:10302000FF12F8CF48E050E0B80182EC93E00E9434
:10303000F32C21E0009709F420E0892B41F088E08F
:10304000F801A2ECB3E001900D928A95E1F744E01B
:103050006AEC73E082EC93E00E943718182F0E940C
:10306000ED16812F2896E5E00C94D12C0895CF928F
:10307000DF92EF92FF921F93CF93DF936C017B015E
:10308000C42F222349F081E080937B030E94C9244E
:1030900090937A038093790310917B0311110AC0F6
:1030A00010E0812FDF91CF911F91FF90EF90DF9083
:1030B000CF9008958091790390917A030E94E12442
:1030C000059770F3D0E0CC0FDD1FAE01B601C7014C
:1030D0000E94F32C892B41F0AE01B601C7010E947A
:1030E000002D10927B03DDCF10E0FBCF0E9456270E
:1030F0000E941B140E94632708950E9468270E9463
:1031000024140E94862708950E9462240E943C276E
:103110000E94FE130E9476180E947D180E940F14D0
:10312000FBCF8091820380FF0DC06091070170E0AA
:10313000660F771F6038710570F56115710569F1CB
:10314000862F089581FF07C06091070184E0689F82
:10315000B0011124EFCF6091070182FD0AC0809178
:1031600081038823A9F0209106016091070182174D
:1031700010F088E0ECCF869FC001112433E0880F67
:10318000991F3A95E1F7622F70E00E948E2CD2CF02
:1031900068E070E0D5CF8FE7089581E008958091D1
:1031A000820380FF0CC06091030170E07595679504
:1031B000759567956115710549F1862F089581FF11
:1031C00006C06091030170E075956795F3CF60913B
:1031D000030182FD0BC0909180039923A1F06091BF
:1031E000020180910301961738F0682F70E0603873
:1031F000710500F38FE70895899FC001112470E0E5
:103200000E948E2CF4CF61E070E0D7CF81E008956A
:103210008D3C31F40E949118819580938603089526
:103220008E3C19F40E949118F8CF8F3C31F40E9423
:1032300091188195809385030895803D19F40E942B
:103240009118F8CF893D29F40E94CF188093870305
:1032500008958A3D21F40E94CF188195F7CF8B3DC8
:1032600031F40E94CF1881958093880308958C3D96
:1032700019F40E94CF18F8CF9FE2980F983070F49D
:10328000815D990B21E030E001C0220F8A95EAF7B9
:1032900080918403822B8093840308958D3D31F4C3
:1032A0008091820381608093820308958E3D21F492
:1032B000809182038260F7CF8F3DB9F780918203BE
:1032C0008460F1CF409185038D3C59F48091860351
:1032D00087FF0DC01092860341110BC0109281032D
:1032E00008C08E3C81F48091860318169CF3442319
:1032F00081F08091870390918803892B09F05AC04F
:103300001092800308958F3C49F447FFF0CF10924C
:103310008503809186038111ECCFE0CF803D19F4C5
:103320001416ACF3E4CF90918703893D29F4191664
:10333000F4F610928703DBCF8A3D19F497FFD7CFBD
:10334000F8CF909188038B3D29F497FFD0CF10924E
:103350008803CDCF8C3D19F41916CCF3C8CF9FE26A
:10336000980F983090F4815D990B21E030E0B9011D
:1033700002C0660F771F8A95E2F7CB018095909186
:103380008403892380938403B2CF8D3D31F48091EF
:1033900082038E7F80938203AACF8E3D21F4809199
:1033A00082038D7FF7CF8F3D09F0A1CF80918203FB
:1033B0008B7FF0CF08958091780383FF7EC084E4F3
:1033C00094E00E94F306809184031F928F938FE311
:1033D00094E09F938F930E948C078DE394E00E946A
:1033E000F30680918503282F082E000C330B3F93A2
:1033F0008F938AE394E09F938F930E948C0788E3D6
:1034000094E00E94F30680918603282F082E000C7A
:10341000330B3F938F9385E394E09F938F930E94A8
:103420008C0783E394E00E94F30680918703282FA2
:10343000082E000C330B3F938F9380E394E09F930F
:103440008F930E948C078EE294E00E94F306809195
:103450008803282F082E000C330B3F938F938BE2A9
:1034600094E09F938F930E948C0788E294E00E94DF
:10347000F306809181031F928F9385E294E09F93DE
:103480008F930E948C0783E294E00E94F306809160
:1034900082031F928F9380E294E09F938F930E9408
:1034A0008C078DE194E00E94F3068DB79EB74C9691
:1034B0000FB6F8949EBF0FBE8DBF0E94C9249C0119
:1034C0009091850380918603982B21F030937F03A0
:1034D00020937E039091870380918803982B21F09D
:1034E00030937D0320937C0383E893E00E94DD22E8
:1034F000089586E0E3E8F3E0DF011D928A95E9F79D
:103500001092810310928003109282030895FC01AF
:10351000828181110EC0838181110BC08481811150
:1035200008C091E08581811101C090E0892F8170F0
:10353000089581E0FCCFA6E0B0E0E1EAFAE10C9466
:10354000B72C86E0E3E8F3E0DE01119601900D92DE
:103550008A95E1F7109285031092860310928703F3
:10356000109288038B819C81892B89F080917E0346
:1035700090917F030E94E124AC01909181039923F3
:10358000C9F1809108018417150608F440C08D81A7
:103590009E81892B91F080917C0390917D030E9404
:1035A000E124AC0190918003992309F471C08091CA
:1035B00004018417150608F479C0BE016F5F7F4FC0
:1035C00083E893E00E941924811105C083E893E009
:1035D0000E94871A81110E94DB1986E0FE01319654
:1035E000A3E8B3E001900D928A95E1F72696E3E017
:1035F0000C94D32C209109018AE0289F900111247A
:103600002417350720F69F5F9093810302C09F3FE8
:10361000D1F71B81112359F00E9491189FEF1116C9
:103620000CF491E0899F802D1124809385031C81E7
:10363000112359F00E9491189FEF11160CF491E09C
:10364000899F802D11248093860330918503332335
:1036500009F49DCF20918603222309F498CF45EBEE
:103660003403C0011124992359F09093850345EB4D
:10367000240390011124332339F03093860387CF3C
:1036800081E080938503F3CF81E0809386037FCF31
:10369000209105018AE0289F900111242417350705
:1036A00008F08BCF9F5F9093800302C09F3FD1F7BC
:1036B0001D81112359F00E94CF189FEF11160CF4B1
:1036C00091E0899F802D1124809387031E8111230F
:1036D00059F00E94CF189FEF11160CF491E0899FCA
:1036E000802D11248093880330918703332309F4BC
:1036F00064CF20918803222309F45FCF45EB340384
:10370000C0011124992359F09093870345EB2403BA
:1037100090011124332339F0309388034ECF81E098
:1037200080938703F3CF81E08093880346CFFB012A
:103730002281222341F097FF06C09F77BC0190E0D1
:1037400080E00E940C1D81E008950F931F93CF939A
:10375000DF93EC018B01FB0182818823B1F00E9491
:103760001C128272FE01E053FC47E830F10568F458
:10377000E75AF24D0C94A22C811104C081E003C0E1
:103780008111FCCF8FEF0E941A1CB801CE010E945C
:10379000971BDF91CF911F910F91089580E00E94B8
:1037A000221CF3CF81E0FBCF82E0F9CF83E0F7CF9B
:1037B00084E0F5CF85E0F3CF9091D303923071F49C
:1037C0008A3050F490E009966AE070E00E948E2CF6
:1037D000875A0E94F40A08958650FBCF0E948D1EDE
:1037E000089508950E94F11B08958CE090E00E94D6
:1037F000092D482F50E070E060E04093D3035093D0
:10380000D4036093D5037093D6030E94F21B80917A
:10381000780380FF0EC08091D3031F928F9386E8B8
:1038200094E09F938F930E948C070F900F900F90BE
:103830000F90089508956091D3038CE090E00E946A
:10384000172D0895CF93C82F8093D3030E941B1C7C
:103850008C2F0E94F21B8091780380FF0EC0809114
:10386000D3031F928F9387E694E09F938F930E94D8
:103870008C070F900F900F900F90CF9108950E949A
:1038800087228093D2039091D303913029F481FF52
:1038900003C089E30E94F40A0E941C128093D7039C
:1038A0000E942F120E943F128091D303823021F197
:1038B00058F48823C1F08130D1F08FE39CE901975F
:1038C000F1F700C000000895843051F18530A9F768
:1038D0008BE191E00E94350885E290E00E94350876
:1038E00088E290E006C082EE0E94EB09E6CF88E114
:1038F00093E00E943508E1CF8091D20380FD03C0A0
:1039000083E50E94F40A82EE0E94EB098FE39CE9B2
:103910000197F1F700C0000087E50E94F40ACDCFBF
:1039200086EE0E94F40A88E1F8CF8091D3038230BA
:1039300011F148F4882381F0813091F08091D70310
:103940000E942C1208958430F9F08530B9F788E28E
:1039500090E00E943508F2CF82EE0E94820AEECFFC
:103960008CE20E94F40A8091D20381FFE7CF89E3C1
:103970000E94F40AE3CF82EE0E94820A8091D20371
:1039800080FDDCCF83E5F4CF88E2F2CF8F929F9267
:10399000AF92BF92EF92FF920F931F93CF93DF935B
:1039A0004B015C01D091D3038CE1E82EF12C07E0B0
:1039B00010E021E0D501C4010E2C04C0B695A795F6
:1039C000979587950A94D2F7C82FCF70222339F0A4
:1039D000D43051F4CA3040F080E00E94DC1B8C2FC0
:1039E0000E94DC1B20E005C0C111F9CF0430110595
:1039F000B4F30150110984E0E81AF1080F3F1007F1
:103A0000C9F6DF91CF911F910F91FF90EF90BF907A
:103A1000AF909F908F900895CF92DF92EF92FF9298
:103A20006B017C01C114D10481E1E806F104A0F529
:103A3000C114D10481E0E806F10420F08091D303A1
:103A4000823051F10E943F1CC114D10481E0E8068C
:103A5000F10438F18091D303811123C081E0E81A89
:103A6000F108C701B6012AE0969587957795679585
:103A70002A95D1F778528F4F9F4F0E94C61C83E042
:103A8000D822EE24FF24C701B60174528F4F9F4FF6
:103A90000E94C61C0E94951CFF90EF90DF90CF9073
:103AA0000895C701B601F4CFCF93DF93EC01FB017A
:103AB0008281882309F4D2C09E0130572332310518
:103AC00008F0B2C00E9435139093C1038093C003E5
:103AD000FE01E150F047E232F10520F4EF59F24DDA
:103AE0000C94A22C8091C00381608093C00393C08A
:103AF0008091C10388608093C1038DC08091C00311
:103B00008260F3CF8091C0038460EFCF8091C003C7
:103B10008860EBCF8091C1038160EDCF8091C103BC
:103B20008260E9CF8091C0038061DFCF8091C003C4
:103B30008062DBCF8091C0038064D7CF0E94750D77
:103B40008091C0038068D1CF8091C0038C60CDCFBD
:103B50008091C1038360CFCF8091C0038E7FC5CF9A
:103B60008091C103877FC7CF8091C0038D7FBDCF78
:103B70008091C0038B7FB9CF8091C003877FB5CF81
:103B80008091C1038E7FB7CF8091C1038D7FB3CF6A
:103B90008091C0038F7EA9CF8091C0038F7DA5CF78
:103BA0008091C0038F7BA1CF0E94750D8091C003CF
:103BB0008F779BCF8091C003837F97CF8091C10384
:103BC0008C7F99CF8091C00382FB992790F921E0E7
:103BD000922790FB82F990FB83F987CF8091C103F4
:103BE000982F909591708E7F892B90FB81F983CFD0
:103BF0009091C003892F8F7B96FF806476CF0E94BF
:103C0000750D9091C003892F97FB87F980586DCF70
:103C100081E00E94B2138091C0039091C1030E9481
:103C20003A130E94750D80E0DF91CF91089580E0F6
:103C3000F0CF9091C003892F8F7E94FF806155CF84
:103C40009091C003892F8E7F90FF81604ECF90911D
:103C5000C103892F877F93FF88604DCF81E0E4CF38
:103C6000B0E0A0E0E6E3FEE10C94B32CE82FF0E036
:103C7000EA55FB4FD490282F26952695269530E0BF
:103C8000F901EA5BFA4F0491877010E0082E02C038
:103C9000159507950A94E2F701701127F901EA5C7E
:103CA000FA4FE490F12C082E02C0F594E7940A94A0
:103CB000E2F791E0E922FF24F901EA5DFA4FC491AD
:103CC000D0E002C0D595C7958A95E2F7C170DD278F
:103CD0000115110519F081EE0E94EB09E114F104C0
:103CE00019F086EE0E94EB098D2D0E94F40AE11472
:103CF000F10419F086EE0E94820A0115110519F0EF
:103D000081EE0E94820ACD2B19F08CE20E94F40A07
:103D1000CDB7DEB7E7E00C94CF2C982F9F709A5068
:103D2000963020F0805D0E94301E0895895AFBCFA6
:103D3000809102011F928F93809103011F928F93B4
:103D4000809106011F928F93809107011F928F939C
:103D5000809108011F928F93809109011F928F9388
:103D600086E595E09F938F930E948C078DB79EB751
:103D70000E960FB6F8949EBF0FBE8DBF0895883281
:103D800028F58E3108F072C08B3041F130F4873065
:103D900009F4CFC085EB96E0E0C0833109F45FC041
:103DA0008431C1F787ED96E00E94F30680918D0380
:103DB000882309F4FEC010928D0310928C03109298
:103DC0008B0310928A031092890320C08F3409F468
:103DD000C7C0D8F5893231F38833E1F68AED96E031
:103DE0000E94F3060E94981E1F9281E08F931F92FB
:103DF00088E08F9383ED95E09F938F930E948C07CB
:103E00000F900F900F900F900F900F9020918D03B7
:103E1000222309F4C9C08091890390918A030097F5
:103E200011F485E991E09F938F931F922F9383EA7A
:103E300096E09F938F930E948C070F900F900F90A6
:103E40000F900F900F9081E00895813509F49CC088
:103E500008F49CC0823509F09DCF81E082C089ECD6
:103E600096E00E94F3060E94981ED0CF8D51809359
:103E70008D03833009F442C058F48130C1F08230A0
:103E8000A1F110928D0386EC96E00E94F3061BC010
:103E9000853009F445C0D8F1863099F782E091E089
:103EA00090938C0380938B038DED91E008C089E0A3
:103EB00091E090938C0380938B0389E991E0909338
:103EC0008A038093890380918D03882309F49ECF10
:103ED0001F928F9382EC96E09F938F930E948C07A2
:103EE0000F900F900F900F9091CF88E091E09093FA
:103EF0008C0380938B0382EA91E0E1CF87E091E02D
:103F000090938C0380938B038EEA91E0D8CF86E068
:103F100091E090938C0380938B038BEB91E0CFCF58
:103F200083E091E090938C0380938B038AEC91E083
:103F3000C6CF81E08093090184E1809308018AE083
:103F4000809307018EE18093060188E0809303014E
:103F500088E28093020188EB96E00E94F30656CF38
:103F60008AE0E0918B03F0918C033097D1F02081AF
:103F7000082E000C990B820F911D8F3F910541F087
:103F80003CF08FEF808307C08FEFEBCF86EFE9CF58
:103F900097FFF8CF108280811F928F938FEA96E06F
:103FA0009BCF8CEA96E0D9CF8FE996E00E94F3068A
:103FB0004ACF80E00895CF93C82F1F928F9380EF50
:103FC00096E09F938F930E948C0781E090E002C05F
:103FD000880F991FCA95E2F70E94C80D0E94750DBF
:103FE0000F900F900F900F90CF910895B0E0A0E048
:103FF000ECEFFFE10C94B32CEBEFE80FEF3308F09C
:104000003EC1F0E0ED57F24D0C94A22C0E9430130B
:104010001F928F9380EA9AE09F938F930E948C0760
:104020000E942B1383FB992790F91F929F9382FB89
:10403000992790F91F929F9381FB992790F91F92DE
:104040009F93982F91701F929F931F928F9387E554
:104050009AE09F938F930E948C070E94351393FBE5
:10406000222720F91F922F9387FB222720F91F92E6
:104070002F9386FB222720F91F922F9385FB22275F
:1040800020F91F922F9384FB222720F91F922F9350
:1040900083FB222720F91F922F9382FB222720F9EE
:1040A0001F922F9391FB222720F91F922F93292FE4
:1040B00021701F922F9381FB222720F91F922F93AB
:1040C000282F21701F922F939F938F9388E599E05B
:1040D0009F938F930E948C078DB79EB78A960FB6D9
:1040E000F8949EBF0FBE8DBF81E01CC080E69BE0B0
:1040F0000E94F3060E94AF13F7CF83EA97E00E9475
:10410000F306F2CF80917803807F809378038CE769
:1041100097E00E94F3068CE59BE00E94F30681E0A5
:1041200080938E03CDB7DEB7E7E00C94CF2C80E40C
:104130009BE00E94F3060E949D08D6CF90917803E1
:10414000892F8E7F90FF81608093780380FF03C06A
:1041500084E39BE0D4CF87E29BE00E94F30680914A
:104160007803817F80937803BFCF90917803892F64
:104170008D7F91FF82608093780381FF08C08AE180
:104180009BE00E94F306809178038160EBCF8CE086
:104190009BE0B5CF90917803892F8B7F92FF84604D
:1041A0008093780382FF03C08DEF9AE0EACF8DEE13
:1041B0009AE0A5CF90917803892F877F93FF88603D
:1041C0008093780383FF03C081EE9AE0DACF84ED19
:1041D0009AE095CF82EF91E09F938F9389E797E0E4
:1041E0009F938F930E948C070F900F900F900F90CA
:1041F0007BCF0E94D524062FF72EE82ED92EC09112
:10420000C003C7FBCC27C0F91091BF03D0911201A6
:104210000E947A22DF92EF92FF920F931F92CF9328
:104220001F921F931F92DF931F928F9385EF96E04B
:104230009F938F930E948C078DB79EB70E960FB6F3
:10424000F8949EBF0FBE8DBF4FCF0E94750D909109
:10425000C003892F97FB87F980588093C00387FF9D
:1042600003C08AEC9AE04BCF8FEB9AE048CF80E016
:104270000E94DB1F39CF8953FBCF8D51F9CF8DEBD6
:104280009AE00E94F30680E04DCF80E008950E94FE
:1042900045210895CF93C82F80918E038130C1F0BE
:1042A000882339F0823009F444C010928E0380E0F4
:1042B0000DC00E941C128232D1F78C2F0E94452122
:1042C00081111BC08C2F0E94F61F8170CF91089521
:1042D0000E941C12823289F38C2F0E944721811187
:1042E0001BC0C431D9F060F4CB3071F0C031D1F0D3
:1042F0008AEE96E00E94F30613C081E090E0E5CFDD
:10430000C93261F0C833A1F78CE797E00E94F30649
:104310008CEE96E00E94F30681E0D7CF10928E03D8
:1043200080E0D3CF82E080938E0388E30E94BF1E9B
:10433000F3CF8C2F0E94BF1E81E0C8CFCF93DF93B5
:10434000EB0186319C4711F50E941C129A8199233A
:1043500099F08A7A91E009F490E090938F038111AB
:1043600009C089E20E94F4110E94601280E0DF918E
:10437000CF91089585E3F6CF80918F03811104C01A
:1043800089E20E94FC11F0CF85E3FBCF81E0EFCF03
:104390000F931F93CF93DF93C42FD22FFC01828101
:1043A0008823C9F0409392030E94C92490939103FB
:1043B0008093900380E28C0F883040F4C77081E0D6
:1043C00001C0880FCA95EAF70E94FD0ADF91CF91DC
:1043D0001F910F91089510919203141332C0809190
:1043E0009003909191030E94E124883C910548F547
:1043F000C0E2CD0F1D17B9F080E2810F883040F484
:10440000177081E001C0880F1A95EAF70E94040B2B
:10441000C83048F481E09D2F977001C0880F9A95AD
:10442000EAF70E94FD0A802F0E94F40AC83070F655
:10443000D77081E001C0880FDA95EAF70E94040B7B
:10444000C5CF80E28C0F883008F6C77081E001C0CC
:10445000880FCA95EAF7F2CF0F93DB0188519C478A
:1044600087309105A0F5FC01EE53F24D0C94A22C7F
:1044700006E221EE41EE6AE17CE7CD010E94C8210F
:1044800080E00F91089507E225EE45EE6BE17CE7B1
:10449000F4CF06E221EE40EE68E17CE7EECF07E2E2
:1044A00025EE44EE69E17CE7E8CF06E221EE42EE3C
:1044B0006CE17CE7E2CF07E225EE46EE6DE17CE7BA
:1044C000DCCF08E221E045EE6EE17CE7D6CF129624
:1044D0008C91882319F010929203D3CF81E0D1CF31
:1044E0009093C7028093C602089590939803809397
:1044F00097030895E0919703F0919803309729F07E
:104500000190F081E02D0995089580E008950E94C2
:104510007A220895EF92FF920F931F93CF93DF9328
:10452000EC01E0919703F0919803309709F440C0B3
:1045300080911201882341F08091C00387FF04C05D
:104540008881898386E088830280F381E02DCE0113
:1045500009958091780382FF2BC080FF04C089E712
:104560009BE00E94F30610E000E083E7E82E8BE07A
:10457000F82E8091780380FF0EC0FE01E00FF11F3E
:1045800080811F928F93FF92EF920E948C070F9071
:104590000F900F900F900F5F1F4F0830110549F7D4
:1045A0008091780380FF04C081E79BE00E94F306BE
:1045B000CDB7DEB7E6E00C94D02CE0919703F091F4
:1045C0009803309739F022E0DC012C930480F581C8
:1045D000E02D09950895A3E0B0E0E1EFF2E20C943C
:1045E000B82C209195033091960328173907A1F034
:1045F0009093960380939503E0919703F09198032D
:10460000309751F023E029839B838A830680F781CA
:10461000E02DCE01019609952396E2E00C94D42C6E
:10462000A3E0B0E0E6E1F3E20C94B82C2091930310
:104630003091940328173907A1F090939403809345
:104640009303E0919703F0919803309751F024E0A1
:1046500029839B838A830680F781E02DCE01019612
:1046600009952396E2E00C94D42CFC0132968091BB
:104670001201882321F08091C0039EE187FF96E01C
:1046800080E0915008F4089521912223D1F38F5FA7
:10469000F8CF662301F1209112012223F1F020913D
:1046A000C00327FF1AC0462F4695469546954E31C2
:1046B00090F4677021E030E002C0220F331F6A954A
:1046C000E2F7840F911DFC01828190E028233923B9
:1046D00081E0232B69F480E00895FC01329608966E
:1046E0002191261721F0E817F907D1F7F4CF81E0DF
:1046F00008959C01FC0132969FEF80E0419146179E
:1047000051F09F3F19F4411101C0982F8F5F8630FF
:10471000A9F79F3F09F40895290F311D97FD3A9598
:10472000F90162830895FC013296089621912613BF
:1047300003C0DF0111971C92E817F907B9F7089534
:10474000E62FE695E695E695EE3170F4E80FF92F41
:10475000F11D677021E030E001C0220F6A95EAF791
:104760008281822B828308958091780380FF0CC020
:104770001F926F9389EA9BE09F938F930E948C070F
:104780000F900F900F900F900895E62FE695E69505
:10479000E695EE3178F4E80FF92FF11D677021E00E
:1047A00030E001C0220F6A95EAF720958281282324
:1047B000228308958091780380FF0CC01F926F932D
:1047C0008BE89BE09F938F930E948C070F900F9034
:1047D0000F900F90089520911201222339F020911B
:1047E000C00327FF03C00E94A02308950E947923DD
:1047F000089520911201222339F02091C00327FF50
:1048000003C00E94C52308950E9493230895FC01CC
:10481000329680911201882351F08091C00387FF66
:1048200006C08EE1DF011D928A95E9F7089586E0C2
:10483000F9CF46E050E00E94F32C21E0892B09F4E7
:1048400020E0822F089508950E9423240895811165
:1048500006C081E0809399030E942424089582E099
:10486000F9CF83E0809399030E94242408950E9445
:104870002724089581E0809399030E9424240895B9
:104880000E943A240895089508950E9444240895AA
:10489000089508950E9443240895CF930E944824C8
:1048A0000E94FB170E944924C0E08C2F0E94F01642
:1048B000892B31F4CF5FC430C1F780E0CF910895E8
:1048C00081E0FCCF85B7806885BF85B7806885BFEC
:1048D00008951F921FB61F9211248F939F93AF9339
:1048E000BF9380919A03811113C08091D803909156
:1048F000D903A091DA03B091DB034196A11DB11D4C
:104900008093D8039093D903A093DA03B093DB0389
:10491000BF91AF919F918F911F901FBE1F901895CF
:104920008091E003843031F10E94160910929A03BD
:1049300088E190E020E40FB6F894A8958093600099
:104940000FBE2093600083B7817F846083BF83B7ED
:10495000816083BF7894889583B78E7F83BF0FB6BD
:10496000F894A8958091600088618093600010920F
:1049700060000FBE08950E94750D0E941B090895E6
:1049800082E084BD93E095BD9AEF97BD80936E0061
:1049900008952FB7F8948091D8039091D903A091EE
:1049A000DA03B091DB032FBF08952FB7F89460911D
:1049B000D8037091D9038091DA039091DB032FBF64
:1049C00008959C014FB7F8948091D8039091D90332
:1049D000A091DA03B091DB034FBF821B930B0895C4
:1049E00078941F921FB61F9211248F939F93AF93B9
:1049F000BF938091D8039091D903A091DA03B0912D
:104A0000DB030196A11DB11D8093D8039093D903B8
:104A1000A093DA03B093DB03BF91AF919F918F9185
:104A20001F901FBE1F90189587E797E79093010886
:104A30008093000888E19AE00FB6F894A8958093D7
:104A400060000FBE90936000FFCF88E19AE00FB640
:104A5000F894A895809360000FBE90936000FFCFFC
:104A60008091BE0308959B01BA019091E0039430B8
:104A7000E9F48F708093E9009FEF8091E8009150F6
:104A800085FD06C085ED8A95F1F700009111F5CFFF
:104A90008091E80085FF0AC050E040E0C9010E9413
:104AA000FC278091E8008E778093E800089543E02A
:104AB00050E0BC0182E00E943325089546E050E0BA
:104AC000BC0182E00E9433250895CF93DF93EC016F
:104AD00080911201811111C048E050E0BE0181E0D7
:104AE0000E94332580E2FE01AEE9B3E001900D9211
:104AF0008A95E1F7DF91CF9108958091C00387FFF8
:104B000005C040E282E050E0BE01EACF48E081E02B
:104B1000FACF8BED9BE00E94F3068091DF038111B9
:104B200009C00E948C290E94E9298091E2008460DA
:104B30008093E200089587ED9BE00E94F3061092B7
:104B4000DF03089583ED9BE00E94F3060E943A2460
:104B500008958FEC9BE00E94F3066091DC0381E0F6
:104B6000611101C080E00E94312408958BEC9BE02C
:104B70000E94F3069091E00381E0943009F080E018
:104B80006091DC030E943724089520919C032F5FDD
:104B9000822F62E30E94822C992319F020939C03B8
:104BA000089510929C0380919D038823F1F08091D9
:104BB000E0038430C1F49091E9009F702091EC00F3
:104BC000822F817020FD80E8892B93E09093E9008B
:104BD0009091EB0090FF04C09091EE0097FD08C00B
:104BE0008F708093E90010929D0308951092F10058
:104BF0009091E80095FDFACF9091E80090FFF0CFFA
:104C00009091E8009E779093E800EACF42E061EC53
:104C100081E00E94082942E261EC82E00E940829BA
:104C200042E261EC83E00E9408299091E00381E078
:104C3000943009F080E06091DC030E9427240895FD
:104C40008091E203833009F461C030F48130D1F106
:104C5000823009F49EC008958A3009F48AC08B30EE
:104C600009F46FC0893009F050C08091E1038132AE
:104C700009F04BC08091E5039091E603029708F09C
:104C800044C08091E800877F8093E8008091E8002D
:104C900082FF37C09091F3008091F200029731F4C7
:104CA0008091F100813011F0863021F48091F10083
:104CB0008093BE038091E8008B778093E8000E9488
:104CC0003C2923C08091E103813AF9F48091E80006
:104CD000877F8093E8008091E5039091E603892B1C
:104CE00061F460E28EE993E070E00E944B288091CD
:104CF000E8008B778093E800089560E090E080E022
:104D0000F3CF8091E0038111C1CF08958091E10339
:104D1000813AD9F78091E5039091E603892BA9F7B1
:104D20008091E800877F8093E8008091E80080FF11
:104D3000FCCF809112018093F1008091E8008E7782
:104D4000BCCF8091E103813201F78091E50390911E
:104D5000E603892BD1F68091E800877F8093E800F5
:104D60000E943C298091E303809312010E94750DFB
:104D700008958091E103813241F68091E800877FB8
:104D80008093E8000E943C298091E4038093BF0354
:104D900008958091E103813A09F0B7CF8091E8004E
:104DA000877F8093E8008091E80080FFFCCF8091AE
:104DB000BF03C1CF9FB7F89410929D039FBF9091FE
:104DC000E003943009F048C02091E9002F70309141
:104DD000EC00932F917030FD90E8922B23E020930C
:104DE000E9002091EB0020FF34C02091EE0027FF66
:104DF00030C020919B03222321F02091E80025FF61
:104E000028C010929B0326E03091E80035FF14C0C3
:104E10008093F1008091E80085FD27C08091E80033
:104E200080FFFCCF8091E8008E778093E8009F7030
:104E30009093E90080E008953091E003343049F424
:104E40003091EB0035FD05C0215041F481E08093A5
:104E50009B039F709093E9008FEF0895EFE9FFE0C7
:104E60003197F1F700C00000CFCF8FB7F89421E061
:104E700020939D038FBFDBCF84B7877F84BF0FB69E
:104E8000F894A895809160008861809360001092EA
:104E900060000FBE80E890E00FB6F8948093610048
:104EA000909361000FBE0E94402408950E948C29B7
:104EB0000E94E929E2EEF0E08081846080837894AA
:104EC0000E94672C08958AE091E00E94752208955F
:104ED0008091E003853051F487EC9BE00E94F3065B
:104EE0008091E003853019F00E94BB2408950E9450
:104EF00090248091DE03882399F30E944D24882317
:104F000079F30E94E6270E94750DEACF08959A0171
:104F10004091E7035091E8030E948F270895492F9D
:104F200055274330510521F168F44130510509F40A
:104F300043C04230510509F444C090E080E050E0A5
:104F400040E026C04132510551F142325105A9F7E6
:104F50006330710590F7FB01EE0FFF1FE654FD4F24
:104F60004081518169547D4FFB01808190E010C0E8
:104F700099278130910581F0009729F00297E9F691
:104F8000EFEDFBE002C0E7E0FCE0849190E0AF01D0
:104F9000F901518340830895EFEEFBE0F6CF6330D3
:104FA000710558F6660F771FFB01E054FD4F4081F5
:104FB000518189E090E0ECCF82E190E046E65CE050
:104FC000E7CF8BE590E04BE05CE0E2CF80E189BD8C
:104FD00082E189BD09B400FEFDCF8091D8008F7DAC
:104FE0008093D8008091E00082608093E0008091FF
:104FF000E00081FDFCCF0895AF92BF92CF92DF9287
:10500000FF920F931F93CF93DF936C01EB018A0103
:105010000E945B29F82E811123C00115110539F07A
:10502000F80180819181C81BD90BC80ED91EB12C03
:10503000A12C2097A9F08091E80085FD22C08091E5
:10504000E8008E778093E80001151105A1F0F801C2
:1050500080819181A80EB91EB182A08285E0F82ED0
:105060008F2DDF91CF911F910F91FF90DF90CF9007
:10507000BF90AF9008950E945B298823D1F2F82E4B
:10508000EFCFF60181916F018093F1002197FFEF3F
:10509000AF1ABF0ACECFFC018091E7039091E803DD
:1050A00086179707A0F06115710529F49091E80023
:1050B0009E779093E80090E06115710551F491118D
:1050C00008C08091E80082FF34C080E00895BC01F0
:1050D000F2CF8091E0038823C1F18530C1F1809146
:1050E000E80083FD30C08091E80082FDEACF809126
:1050F000E80080FFE1CF8091F3002091F200382F8B
:105100006115710519F02830310558F091E028300B
:10511000310509F090E02091E8002E772093E80017
:10512000CBCF81918093F100615071092F5F3F4F88
:10513000E7CF8091E003882341F0853041F08091F2
:10514000E80083FFBECF81E0089582E0089583E008
:105150000895FC018091E7039091E8038617970773
:10516000A0F06115710529F48091E8008E77809395
:10517000E80090E06115710551F4911108C080912B
:10518000E80082FF35C080E00895BC01F2CF809135
:10519000E0038823C9F18530C9F18091E80083FDDF
:1051A00031C08091E80082FDEACF8091E80080FF65
:1051B000E1CF8091F3002091F200382F6115710545
:1051C00019F02830310558F091E02830310509F008
:1051D00090E08091E8008E778093E800CBCF8491B7
:1051E0008093F1003196615071092F5F3F4FE6CFF8
:1051F0008091E003882341F0853041F08091E80000
:1052000083FFBDCF81E0089582E0089583E0089593
:10521000982F973028F08F708093E90081E00895EF
:105220009093E900242F762F50E0981731F0709179
:10523000EC002091ED005091F00021FD02C09F5F35
:10524000E8CF3091EB003E7F3093EB003091ED00E2
:105250003D7F3093ED003091EB0031603093EB00F7
:105260007093EC002093ED005093F0002091EE003D
:1052700027FDE5CF80E008958091E10387FF13C00B
:105280008091E80082FF06C08091E8008B778093D0
:10529000E80004C08091E0038111F2CF089580916D
:1052A000E0038823D9F38091E80080FFF8CF809154
:1052B000E8008E77ECCF2091E4003091E50095E690
:1052C000A9012091EC00822F817020FF06C08091FF
:1052D000E80080FF06C080E008952091E80022FDEC
:1052E0001AC08091E003882389F0853089F080918D
:1052F000EB0085FD0FC02091E4003091E5004217DE
:105300005307F9F29150E1F684E0089582E00895A0
:1053100083E0089581E008950E94FB290E94032AFA
:10532000E0EEF0E0808181608083E8EDF0E0808154
:105330008F77808319BCA7EDB0E08C918E7F8C9322
:1053400080818F7E80831092DF0308950F931F93D7
:10535000CF93DF930E94FB290E94032AC8EDD0E07F
:1053600088818F77888388818068888388818F7D12
:10537000888319BC1092E0031092DC031092DE03C4
:105380001092DD0300EE10E0F80180818B7F8083B6
:1053900088818160888342E060E080E00E94082983
:1053A000E1EEF0E080818E7F8083E2EEF0E08081AC
:1053B00081608083808188608083F80180818E7F16
:1053C0008083888180618883DF91CF911F910F91C5
:1053D0000895E8EDF0E080818F7E8083E7EDF0E0D6
:1053E00080818160808384E082BF81E08093DF03DD
:1053F0000E94A6290895E8EDF0E080818E7F8083E9
:105400001092E20008951092DA001092E1000895DF
:105410001F920F920FB60F9211242F933F934F9329
:105420005F936F937F938F939F93AF93BF93EF930C
:10543000FF938091E10082FF0BC08091E20082FF28
:1054400007C08091E1008B7F8093E1000E94C52519
:105450008091DA0080FF19C08091D80080FF15C0CC
:105460008091DA008E7F8093DA008091D90080FFEE
:1054700096C080E189BD82E189BD09B400FEFDCFFF
:1054800081E08093E0030E9489258091E10080FF04
:1054900019C08091E20080FF15C08091E2008E7FEC
:1054A0008093E2008091E20080618093E20080912D
:1054B000D80080628093D80019BC85E08093E00317
:1054C0000E94A9258091E10084FF2BC08091E20019
:1054D00084FF27C080E189BD82E189BD89B5982F0D
:1054E000917080FFFBCF8091D8008F7D8093D80092
:1054F0008091E1008F7E8093E1008091E2008F7EB9
:105500008093E2008091E20081608093E2008091CC
:10551000DC03882309F449C084E08093E0030E94FF
:10552000B6258091E10083FF29C08091E20083FFCE
:1055300025C08091E100877F8093E10082E0809325
:10554000E0031092DC038091E1008E7F8093E10004
:105550008091E2008E7F8093E2008091E200806182
:105560008093E20042E060E080E00E9408298091A0
:10557000F00088608093F0000E94A225FF91EF91D7
:10558000BF91AF919F918F917F916F915F914F915B
:105590003F912F910F900FBE0F901F90189519BC3F
:1055A0001092E0030E949B2570CF8091E30087FD5D
:1055B00093E09093E003B3CF1F920F920FB60F9238
:1055C00011242F933F934F935F936F937F938F9308
:1055D0009F93AF93BF93CF93DF93EF93FF93D091BC
:1055E000E900DF708091EC00C82FC17080FDC0E839
:1055F0001092E9008091F000877F8093F00078940A
:105600000E94202B1092E9008091F0008860809326
:10561000F000CD2BCF70C093E900FF91EF91DF91A7
:10562000CF91BF91AF919F918F917F916F915F913A
:105630004F913F912F910F900FBE0F901F90189593
:10564000AAE2B0E0E6E2FBE20C94B72C81EE93E034
:105650002091F100FC012193CF01F3E0893E9F07E7
:10566000B9F70E9420268091E80083FF1EC1809137
:10567000E1039091E2039A3008F017C1E92FF0E0BE
:10568000E753F24D0C94A22C803899F0823809F03F
:105690000CC18091E5038F70873008F006C18093BC
:1056A000E9008091EB0085FB882780F91092E900E2
:1056B00006C08091DD039091DE039111826090918C
:1056C000E800977F9093E8008093F1001092F1003A
:1056D0008091E8008E77E5C0882309F4D3C082303A
:1056E00009F0E3C08091E3038111D6C08091E50306
:1056F0008F702FEF280F263008F0D7C08093E90075
:105700002091EB0020FFC8C0933031F48091EB0072
:1057100080628093EB00C0C09091EB009061909309
:10572000EB0021E030E001C0220F8A95EAF72093D8
:10573000EA001092EA008091EB008860EACF8111C4
:10574000B4C01091E3031F778091E3008078812B30
:105750008093E3008091E800877F8093E8000E94B7
:105760003C298091E80080FFFCCF8091E3008068B5
:105770008093E30082E0111183E08093E00395C001
:105780008058823008F091C08091E3039091E40347
:105790008C3D23E09207A1F583E08A838AE2898326
:1057A0004FB7F894DE01139620E03EE051E2E32F7C
:1057B000F0E050935700E49120FF03C0E295EF70B2
:1057C0003F5FEF708E2F90E0EA30C0F0C7968D9368
:1057D0009D932F5F243159F74FBF8091E800877F59
:1057E0008093E8006AE270E0CE0101960E944B28A7
:1057F0008091E8008B778093E80057C0C096E7CF90
:105800006091E5037091E603AE014F5F5F4F0E9428
:105810008727BC01892B09F448C09091E800977F45
:105820009093E80089819A810E94A928E1CF80386D
:10583000E1F58091E800877F8093E8008091DC03A8
:105840008093F10045CF811130C09091E3039230F5
:1058500060F58091E800877F8093E8009093DC03F7
:105860000E943C298091DC03882311F084E005C06C
:105870008091E30087FDFACF81E08093E0030E94EE
:10588000062613C08091E303813079F481E09330E0
:1058900009F080E08093DE031092E9008091E80037
:1058A000877F8093E8000E943C298091E80083FF75
:1058B0000AC08091E800877F8093E8008091EB0028
:1058C00080628093EB00AA96E3E00C94D32CCF93F4
:1058D0008091E0038823A1F0C091E900CF709091FE
:1058E000EC00892F817090FD80E8C82B1092E900B0
:1058F0008091E80083FD0E94202BCF70C093E900C7
:10590000CF910895991B79E004C0991F961708F06C
:10591000961B881F7A95C9F78095089597FB072EE7
:1059200016F4009407D077FD09D00E94DF2C07FC05
:1059300005D03EF4909581959F4F0895709561959F
:105940007F4F0895EE0FFF1F0590F491E02D09940D
:105950002F923F924F925F926F927F928F929F927F
:10596000AF92BF92CF92DF92EF92FF920F931F936D
:10597000CF93DF93CDB7DEB7CA1BDB0B0FB6F8941E
:10598000DEBF0FBECDBF09942A88398848885F845E
:105990006E847D848C849B84AA84B984C884DF80CF
:1059A000EE80FD800C811B81AA81B981CE0FD11DB3
:1059B0000FB6F894DEBF0FBECDBFED010895AA1B50
:1059C000BB1B51E107C0AA1FBB1FA617B70710F0EA
:1059D000A61BB70B881F991F5A95A9F7809590951C
:1059E000BC01CD010895FB01DC0104C08D91019043
:1059F000801921F441505040C8F7881B990B089535
:105A0000FB01DC0102C001900D9241505040D8F7DB
:105A10000895F999FECF92BD81BDF89A992780B576
:105A20000895A8E1B0E042E050E00C943D2D262F0F
:105A3000F999FECF92BD81BDF89A019700B4021684
:105A400039F01FBA20BD0FB6F894FA9AF99A0FBE32
:105A500008950396272F0E94182D0E94172D252F99
:105A60000E94182D242F0C94182D0196272F0E9488
:105A7000182D0C94172DDC01CB01FC01F999FECFF8
:105A800006C0F2BDE1BDF89A319600B40D924150C6
:105A90005040B8F70895F894FFCF4A0B4A0B9B0B80
:105AA0009B0B0E0C2A0C790B790B2F0CA00CAF0C56
:105AB000AF0CBC1BC01BCE1BD21BD41BD61BD81BD0
:105AC000DA1BAC1D201EB41D7E1D821DB81D861D57
:105AD000BC1DC81D921D191E961DCC1D9A1DD01DE2
